{
  "contractName": "NftTicketing",
  "abi": [
    {
      "inputs": [],
      "stateMutability": "nonpayable",
      "type": "constructor"
    },
    {
      "anonymous": false,
      "inputs": [
        {
          "indexed": true,
          "internalType": "address",
          "name": "owner",
          "type": "address"
        },
        {
          "indexed": true,
          "internalType": "address",
          "name": "approved",
          "type": "address"
        },
        {
          "indexed": true,
          "internalType": "uint256",
          "name": "tokenId",
          "type": "uint256"
        }
      ],
      "name": "Approval",
      "type": "event"
    },
    {
      "anonymous": false,
      "inputs": [
        {
          "indexed": true,
          "internalType": "address",
          "name": "owner",
          "type": "address"
        },
        {
          "indexed": true,
          "internalType": "address",
          "name": "operator",
          "type": "address"
        },
        {
          "indexed": false,
          "internalType": "bool",
          "name": "approved",
          "type": "bool"
        }
      ],
      "name": "ApprovalForAll",
      "type": "event"
    },
    {
      "anonymous": false,
      "inputs": [
        {
          "indexed": true,
          "internalType": "address",
          "name": "previousOwner",
          "type": "address"
        },
        {
          "indexed": true,
          "internalType": "address",
          "name": "newOwner",
          "type": "address"
        }
      ],
      "name": "OwnershipTransferred",
      "type": "event"
    },
    {
      "anonymous": false,
      "inputs": [
        {
          "indexed": true,
          "internalType": "address",
          "name": "from",
          "type": "address"
        },
        {
          "indexed": true,
          "internalType": "address",
          "name": "to",
          "type": "address"
        },
        {
          "indexed": true,
          "internalType": "uint256",
          "name": "tokenId",
          "type": "uint256"
        }
      ],
      "name": "Transfer",
      "type": "event"
    },
    {
      "inputs": [],
      "name": "MAX_PER_MINT",
      "outputs": [
        {
          "internalType": "uint256",
          "name": "",
          "type": "uint256"
        }
      ],
      "stateMutability": "view",
      "type": "function",
      "constant": true
    },
    {
      "inputs": [],
      "name": "MAX_SUPPLY",
      "outputs": [
        {
          "internalType": "uint256",
          "name": "",
          "type": "uint256"
        }
      ],
      "stateMutability": "view",
      "type": "function",
      "constant": true
    },
    {
      "inputs": [
        {
          "internalType": "address",
          "name": "to",
          "type": "address"
        },
        {
          "internalType": "uint256",
          "name": "tokenId",
          "type": "uint256"
        }
      ],
      "name": "approve",
      "outputs": [],
      "stateMutability": "nonpayable",
      "type": "function"
    },
    {
      "inputs": [
        {
          "internalType": "address",
          "name": "owner",
          "type": "address"
        }
      ],
      "name": "balanceOf",
      "outputs": [
        {
          "internalType": "uint256",
          "name": "",
          "type": "uint256"
        }
      ],
      "stateMutability": "view",
      "type": "function",
      "constant": true
    },
    {
      "inputs": [],
      "name": "baseTokenURI",
      "outputs": [
        {
          "internalType": "string",
          "name": "",
          "type": "string"
        }
      ],
      "stateMutability": "view",
      "type": "function",
      "constant": true
    },
    {
      "inputs": [
        {
          "internalType": "uint256",
          "name": "tokenId",
          "type": "uint256"
        }
      ],
      "name": "getApproved",
      "outputs": [
        {
          "internalType": "address",
          "name": "",
          "type": "address"
        }
      ],
      "stateMutability": "view",
      "type": "function",
      "constant": true
    },
    {
      "inputs": [
        {
          "internalType": "address",
          "name": "owner",
          "type": "address"
        },
        {
          "internalType": "address",
          "name": "operator",
          "type": "address"
        }
      ],
      "name": "isApprovedForAll",
      "outputs": [
        {
          "internalType": "bool",
          "name": "",
          "type": "bool"
        }
      ],
      "stateMutability": "view",
      "type": "function",
      "constant": true
    },
    {
      "inputs": [],
      "name": "name",
      "outputs": [
        {
          "internalType": "string",
          "name": "",
          "type": "string"
        }
      ],
      "stateMutability": "view",
      "type": "function",
      "constant": true
    },
    {
      "inputs": [],
      "name": "owner",
      "outputs": [
        {
          "internalType": "address",
          "name": "",
          "type": "address"
        }
      ],
      "stateMutability": "view",
      "type": "function",
      "constant": true
    },
    {
      "inputs": [
        {
          "internalType": "uint256",
          "name": "tokenId",
          "type": "uint256"
        }
      ],
      "name": "ownerOf",
      "outputs": [
        {
          "internalType": "address",
          "name": "",
          "type": "address"
        }
      ],
      "stateMutability": "view",
      "type": "function",
      "constant": true
    },
    {
      "inputs": [],
      "name": "price",
      "outputs": [
        {
          "internalType": "uint256",
          "name": "",
          "type": "uint256"
        }
      ],
      "stateMutability": "view",
      "type": "function",
      "constant": true
    },
    {
      "inputs": [],
      "name": "renounceOwnership",
      "outputs": [],
      "stateMutability": "nonpayable",
      "type": "function"
    },
    {
      "inputs": [
        {
          "internalType": "address",
          "name": "from",
          "type": "address"
        },
        {
          "internalType": "address",
          "name": "to",
          "type": "address"
        },
        {
          "internalType": "uint256",
          "name": "tokenId",
          "type": "uint256"
        }
      ],
      "name": "safeTransferFrom",
      "outputs": [],
      "stateMutability": "nonpayable",
      "type": "function"
    },
    {
      "inputs": [
        {
          "internalType": "address",
          "name": "from",
          "type": "address"
        },
        {
          "internalType": "address",
          "name": "to",
          "type": "address"
        },
        {
          "internalType": "uint256",
          "name": "tokenId",
          "type": "uint256"
        },
        {
          "internalType": "bytes",
          "name": "data",
          "type": "bytes"
        }
      ],
      "name": "safeTransferFrom",
      "outputs": [],
      "stateMutability": "nonpayable",
      "type": "function"
    },
    {
      "inputs": [],
      "name": "saleIsActive",
      "outputs": [
        {
          "internalType": "bool",
          "name": "",
          "type": "bool"
        }
      ],
      "stateMutability": "view",
      "type": "function",
      "constant": true
    },
    {
      "inputs": [
        {
          "internalType": "address",
          "name": "operator",
          "type": "address"
        },
        {
          "internalType": "bool",
          "name": "approved",
          "type": "bool"
        }
      ],
      "name": "setApprovalForAll",
      "outputs": [],
      "stateMutability": "nonpayable",
      "type": "function"
    },
    {
      "inputs": [],
      "name": "symbol",
      "outputs": [
        {
          "internalType": "string",
          "name": "",
          "type": "string"
        }
      ],
      "stateMutability": "view",
      "type": "function",
      "constant": true
    },
    {
      "inputs": [
        {
          "internalType": "uint256",
          "name": "index",
          "type": "uint256"
        }
      ],
      "name": "tokenByIndex",
      "outputs": [
        {
          "internalType": "uint256",
          "name": "",
          "type": "uint256"
        }
      ],
      "stateMutability": "view",
      "type": "function",
      "constant": true
    },
    {
      "inputs": [
        {
          "internalType": "address",
          "name": "owner",
          "type": "address"
        },
        {
          "internalType": "uint256",
          "name": "index",
          "type": "uint256"
        }
      ],
      "name": "tokenOfOwnerByIndex",
      "outputs": [
        {
          "internalType": "uint256",
          "name": "",
          "type": "uint256"
        }
      ],
      "stateMutability": "view",
      "type": "function",
      "constant": true
    },
    {
      "inputs": [],
      "name": "totalSupply",
      "outputs": [
        {
          "internalType": "uint256",
          "name": "",
          "type": "uint256"
        }
      ],
      "stateMutability": "view",
      "type": "function",
      "constant": true
    },
    {
      "inputs": [
        {
          "internalType": "address",
          "name": "from",
          "type": "address"
        },
        {
          "internalType": "address",
          "name": "to",
          "type": "address"
        },
        {
          "internalType": "uint256",
          "name": "tokenId",
          "type": "uint256"
        }
      ],
      "name": "transferFrom",
      "outputs": [],
      "stateMutability": "nonpayable",
      "type": "function"
    },
    {
      "inputs": [
        {
          "internalType": "address",
          "name": "newOwner",
          "type": "address"
        }
      ],
      "name": "transferOwnership",
      "outputs": [],
      "stateMutability": "nonpayable",
      "type": "function"
    },
    {
      "inputs": [
        {
          "internalType": "uint256",
          "name": "tokenId",
          "type": "uint256"
        }
      ],
      "name": "generateMetadata",
      "outputs": [
        {
          "internalType": "string",
          "name": "",
          "type": "string"
        }
      ],
      "stateMutability": "pure",
      "type": "function",
      "constant": true
    },
    {
      "inputs": [
        {
          "internalType": "uint256",
          "name": "_count",
          "type": "uint256"
        }
      ],
      "name": "reserveNfts",
      "outputs": [],
      "stateMutability": "nonpayable",
      "type": "function"
    },
    {
      "inputs": [
        {
          "internalType": "address[]",
          "name": "_wAddresses",
          "type": "address[]"
        }
      ],
      "name": "airDropNfts",
      "outputs": [],
      "stateMutability": "nonpayable",
      "type": "function"
    },
    {
      "inputs": [
        {
          "internalType": "bool",
          "name": "_activeState",
          "type": "bool"
        }
      ],
      "name": "setSaleState",
      "outputs": [],
      "stateMutability": "nonpayable",
      "type": "function"
    },
    {
      "inputs": [
        {
          "internalType": "uint256",
          "name": "_count",
          "type": "uint256"
        }
      ],
      "name": "mintNfts",
      "outputs": [],
      "stateMutability": "payable",
      "type": "function",
      "payable": true
    },
    {
      "inputs": [
        {
          "internalType": "uint256",
          "name": "_newPrice",
          "type": "uint256"
        }
      ],
      "name": "updatePrice",
      "outputs": [],
      "stateMutability": "nonpayable",
      "type": "function"
    },
    {
      "inputs": [],
      "name": "withdraw",
      "outputs": [],
      "stateMutability": "payable",
      "type": "function",
      "payable": true
    },
    {
      "inputs": [
        {
          "internalType": "address",
          "name": "_owner",
          "type": "address"
        }
      ],
      "name": "tokensOfOwner",
      "outputs": [
        {
          "internalType": "uint256[]",
          "name": "",
          "type": "uint256[]"
        }
      ],
      "stateMutability": "view",
      "type": "function",
      "constant": true
    },
    {
      "inputs": [
        {
          "internalType": "uint256",
          "name": "tokenId",
          "type": "uint256"
        }
      ],
      "name": "tokenURI",
      "outputs": [
        {
          "internalType": "string",
          "name": "",
          "type": "string"
        }
      ],
      "stateMutability": "view",
      "type": "function",
      "constant": true
    },
    {
      "inputs": [
        {
          "internalType": "bytes4",
          "name": "interfaceId",
          "type": "bytes4"
        }
      ],
      "name": "supportsInterface",
      "outputs": [
        {
          "internalType": "bool",
          "name": "",
          "type": "bool"
        }
      ],
      "stateMutability": "view",
      "type": "function",
      "constant": true
    }
  ],
  "bytecode": "0x608060405266b1a2bc2ec50000600e555f600f5f6101000a81548160ff02191690831515021790555034801562000034575f80fd5b506040518060400160405280600e81526020017f4d79204e4654205469636b6574730000000000000000000000000000000000008152506040518060400160405280600381526020017f4d4e540000000000000000000000000000000000000000000000000000000000815250815f9081620000b191906200041a565b508060019081620000c391906200041a565b505050620000e6620000da620000ec60201b60201c565b620000f360201b60201c565b620004fe565b5f33905090565b5f600b5f9054906101000a900473ffffffffffffffffffffffffffffffffffffffff16905081600b5f6101000a81548173ffffffffffffffffffffffffffffffffffffffff021916908373ffffffffffffffffffffffffffffffffffffffff1602179055508173ffffffffffffffffffffffffffffffffffffffff168173ffffffffffffffffffffffffffffffffffffffff167f8be0079c531659141344cd1fd0a4f28419497f9722a3daafe3b4186f6b6457e060405160405180910390a35050565b5f81519050919050565b7f4e487b71000000000000000000000000000000000000000000000000000000005f52604160045260245ffd5b7f4e487b71000000000000000000000000000000000000000000000000000000005f52602260045260245ffd5b5f60028204905060018216806200023257607f821691505b602082108103620002485762000247620001ed565b5b50919050565b5f819050815f5260205f209050919050565b5f6020601f8301049050919050565b5f82821b905092915050565b5f60088302620002ac7fffffffffffffffffffffffffffffffffffffffffffffffffffffffffffffffff826200026f565b620002b886836200026f565b95508019841693508086168417925050509392505050565b5f819050919050565b5f819050919050565b5f62000302620002fc620002f684620002d0565b620002d9565b620002d0565b9050919050565b5f819050919050565b6200031d83620002e2565b620003356200032c8262000309565b8484546200027b565b825550505050565b5f90565b6200034b6200033d565b6200035881848462000312565b505050565b5b818110156200037f57620003735f8262000341565b6001810190506200035e565b5050565b601f821115620003ce5762000398816200024e565b620003a38462000260565b81016020851015620003b3578190505b620003cb620003c28562000260565b8301826200035d565b50505b505050565b5f82821c905092915050565b5f620003f05f1984600802620003d3565b1980831691505092915050565b5f6200040a8383620003df565b9150826002028217905092915050565b6200042582620001b6565b67ffffffffffffffff811115620004415762000440620001c0565b5b6200044d82546200021a565b6200045a82828562000383565b5f60209050601f83116001811462000490575f84156200047b578287015190505b620004878582620003fd565b865550620004f6565b601f198416620004a0866200024e565b5f5b82811015620004c957848901518255600182019150602085019450602081019050620004a2565b86831015620004e95784890151620004e5601f891682620003df565b8355505b6001600288020188555050505b505050505050565b614cd4806200050c5f395ff3fe6080604052600436106101e2575f3560e01c806370a0823111610101578063b88d4fde11610094578063dba433fc11610063578063dba433fc146106da578063e985e9c5146106f6578063eb8d244414610732578063f2fde38b1461075c576101e2565b8063b88d4fde14610624578063c4e370951461064c578063c87b56dd14610674578063d547cfb7146106b0576101e2565b80638da5cb5b116100d05780638da5cb5b1461057e57806395d89b41146105a8578063a035b1fe146105d2578063a22cb465146105fc576101e2565b806370a08231146104c8578063715018a6146105045780638462151c1461051a5780638d6cc56d14610556576101e2565b806323b872dd1161017957806342842e0e1161014857806342842e0e14610400578063451f6807146104285780634f6ccce7146104505780636352211e1461048c576101e2565b806323b872dd146103685780632f745c591461039057806332cb6b0c146103cc5780633ccfd60b146103f6576101e2565b8063095ea7b3116101b5578063095ea7b3146102c457806309d42b30146102ec57806318160ddd146103165780631b7cfa0914610340576101e2565b8063015e1a0b146101e657806301ffc9a71461022257806306fdde031461025e578063081812fc14610288575b5f80fd5b3480156101f1575f80fd5b5061020c60048036038101906102079190612d72565b610784565b6040516102199190612e27565b60405180910390f35b34801561022d575f80fd5b5061024860048036038101906102439190612e9c565b61081c565b6040516102559190612ee1565b60405180910390f35b348015610269575f80fd5b5061027261082d565b60405161027f9190612e27565b60405180910390f35b348015610293575f80fd5b506102ae60048036038101906102a99190612d72565b6108bc565b6040516102bb9190612f39565b60405180910390f35b3480156102cf575f80fd5b506102ea60048036038101906102e59190612f7c565b6108fe565b005b3480156102f7575f80fd5b50610300610a14565b60405161030d9190612fc9565b60405180910390f35b348015610321575f80fd5b5061032a610a19565b6040516103379190612fc9565b60405180910390f35b34801561034b575f80fd5b5061036660048036038101906103619190612d72565b610a25565b005b348015610373575f80fd5b5061038e60048036038101906103899190612fe2565b610acd565b005b34801561039b575f80fd5b506103b660048036038101906103b19190612f7c565b610b2d565b6040516103c39190612fc9565b60405180910390f35b3480156103d7575f80fd5b506103e0610bcd565b6040516103ed9190612fc9565b60405180910390f35b6103fe610bd3565b005b34801561040b575f80fd5b5061042660048036038101906104219190612fe2565b610ccd565b005b348015610433575f80fd5b5061044e60048036038101906104499190613093565b610cec565b005b34801561045b575f80fd5b5061047660048036038101906104719190612d72565b610dc4565b6040516104839190612fc9565b60405180910390f35b348015610497575f80fd5b506104b260048036038101906104ad9190612d72565b610e32565b6040516104bf9190612f39565b60405180910390f35b3480156104d3575f80fd5b506104ee60048036038101906104e991906130de565b610eb6565b6040516104fb9190612fc9565b60405180910390f35b34801561050f575f80fd5b50610518610f6a565b005b348015610525575f80fd5b50610540600480360381019061053b91906130de565b610f7d565b60405161054d91906131c0565b60405180910390f35b348015610561575f80fd5b5061057c60048036038101906105779190612d72565b611028565b005b348015610589575f80fd5b5061059261103a565b60405161059f9190612f39565b60405180910390f35b3480156105b3575f80fd5b506105bc611062565b6040516105c99190612e27565b60405180910390f35b3480156105dd575f80fd5b506105e66110f2565b6040516105f39190612fc9565b60405180910390f35b348015610607575f80fd5b50610622600480360381019061061d919061320a565b6110f8565b005b34801561062f575f80fd5b5061064a60048036038101906106459190613370565b61110e565b005b348015610657575f80fd5b50610672600480360381019061066d91906133f0565b611170565b005b34801561067f575f80fd5b5061069a60048036038101906106959190612d72565b611194565b6040516106a79190612e27565b60405180910390f35b3480156106bb575f80fd5b506106c46111a6565b6040516106d19190612e27565b60405180910390f35b6106f460048036038101906106ef9190612d72565b611232565b005b348015610701575f80fd5b5061071c6004803603810190610717919061341b565b6113bf565b6040516107299190612ee1565b60405180910390f35b34801561073d575f80fd5b5061074661144d565b6040516107539190612ee1565b60405180910390f35b348015610767575f80fd5b50610782600480360381019061077d91906130de565b61145f565b005b60605f610790836114e1565b6040516020016107a091906137a5565b60405160208183030381529060405290505f6107ec6107be856114e1565b6107c7846115ab565b6040516020016107d8929190613999565b6040516020818303038152906040526115ab565b90505f816040516020016108009190613a27565b6040516020818303038152906040529050809350505050919050565b5f6108268261170a565b9050919050565b60605f805461083b90613a75565b80601f016020809104026020016040519081016040528092919081815260200182805461086790613a75565b80156108b25780601f10610889576101008083540402835291602001916108b2565b820191905f5260205f20905b81548152906001019060200180831161089557829003601f168201915b5050505050905090565b5f6108c682611783565b60045f8381526020019081526020015f205f9054906101000a900473ffffffffffffffffffffffffffffffffffffffff169050919050565b5f61090882610e32565b90508073ffffffffffffffffffffffffffffffffffffffff168373ffffffffffffffffffffffffffffffffffffffff1603610978576040517f08c379a000000000000000000000000000000000000000000000000000000000815260040161096f90613b15565b60405180910390fd5b8073ffffffffffffffffffffffffffffffffffffffff166109976117ce565b73ffffffffffffffffffffffffffffffffffffffff1614806109c657506109c5816109c06117ce565b6113bf565b5b610a05576040517f08c379a00000000000000000000000000000000000000000000000000000000081526004016109fc90613ba3565b60405180910390fd5b610a0f83836117d5565b505050565b600581565b5f600880549050905090565b610a2d61188b565b5f610a38600c611909565b90506127108282610a499190613bee565b10610a89576040517f08c379a0000000000000000000000000000000000000000000000000000000008152600401610a8090613c6b565b60405180910390fd5b5f5b82811015610ac8575f610aa88284610aa39190613bee565b610784565b9050610ab43382611915565b508080610ac090613c89565b915050610a8b565b505050565b610ade610ad86117ce565b82611997565b610b1d576040517f08c379a0000000000000000000000000000000000000000000000000000000008152600401610b1490613d40565b60405180910390fd5b610b28838383611a2b565b505050565b5f610b3783610eb6565b8210610b78576040517f08c379a0000000000000000000000000000000000000000000000000000000008152600401610b6f90613dce565b60405180910390fd5b60065f8473ffffffffffffffffffffffffffffffffffffffff1673ffffffffffffffffffffffffffffffffffffffff1681526020019081526020015f205f8381526020019081526020015f2054905092915050565b61271081565b610bdb61188b565b5f4790505f8111610c21576040517f08c379a0000000000000000000000000000000000000000000000000000000008152600401610c1890613e36565b60405180910390fd5b5f3373ffffffffffffffffffffffffffffffffffffffff1682604051610c4690613e81565b5f6040518083038185875af1925050503d805f8114610c80576040519150601f19603f3d011682016040523d82523d5f602084013e610c85565b606091505b5050905080610cc9576040517f08c379a0000000000000000000000000000000000000000000000000000000008152600401610cc090613edf565b60405180910390fd5b5050565b610ce783838360405180602001604052805f81525061110e565b505050565b610cf461188b565b5f610cff600c611909565b90505f8383905090506127108183610d179190613bee565b10610d57576040517f08c379a0000000000000000000000000000000000000000000000000000000008152600401610d4e90613c6b565b60405180910390fd5b5f5b81811015610dbd575f610d768285610d719190613bee565b610784565b9050610da9868684818110610d8e57610d8d613efd565b5b9050602002016020810190610da391906130de565b82611915565b508080610db590613c89565b915050610d59565b5050505050565b5f610dcd610a19565b8210610e0e576040517f08c379a0000000000000000000000000000000000000000000000000000000008152600401610e0590613f9a565b60405180910390fd5b60088281548110610e2257610e21613efd565b5b905f5260205f2001549050919050565b5f80610e3d83611d17565b90505f73ffffffffffffffffffffffffffffffffffffffff168173ffffffffffffffffffffffffffffffffffffffff1603610ead576040517f08c379a0000000000000000000000000000000000000000000000000000000008152600401610ea490614002565b60405180910390fd5b80915050919050565b5f8073ffffffffffffffffffffffffffffffffffffffff168273ffffffffffffffffffffffffffffffffffffffff1603610f25576040517f08c379a0000000000000000000000000000000000000000000000000000000008152600401610f1c90614090565b60405180910390fd5b60035f8373ffffffffffffffffffffffffffffffffffffffff1673ffffffffffffffffffffffffffffffffffffffff1681526020019081526020015f20549050919050565b610f7261188b565b610f7b5f611d50565b565b60605f610f8983610eb6565b90505f8167ffffffffffffffff811115610fa657610fa561324c565b5b604051908082528060200260200182016040528015610fd45781602001602082028036833780820191505090505b5090505f5b8281101561101d57610feb8582610b2d565b828281518110610ffe57610ffd613efd565b5b602002602001018181525050808061101590613c89565b915050610fd9565b508092505050919050565b61103061188b565b80600e8190555050565b5f600b5f9054906101000a900473ffffffffffffffffffffffffffffffffffffffff16905090565b60606001805461107190613a75565b80601f016020809104026020016040519081016040528092919081815260200182805461109d90613a75565b80156110e85780601f106110bf576101008083540402835291602001916110e8565b820191905f5260205f20905b8154815290600101906020018083116110cb57829003601f168201915b5050505050905090565b600e5481565b61110a6111036117ce565b8383611e13565b5050565b61111f6111196117ce565b83611997565b61115e576040517f08c379a000000000000000000000000000000000000000000000000000000000815260040161115590613d40565b60405180910390fd5b61116a84848484611f7a565b50505050565b61117861188b565b80600f5f6101000a81548160ff02191690831515021790555050565b606061119f82611fd6565b9050919050565b600d80546111b390613a75565b80601f01602080910402602001604051908101604052809291908181526020018280546111df90613a75565b801561122a5780601f106112015761010080835404028352916020019161122a565b820191905f5260205f20905b81548152906001019060200180831161120d57829003601f168201915b505050505081565b5f61123d600c611909565b9050612710828261124e9190613bee565b1061128e576040517f08c379a0000000000000000000000000000000000000000000000000000000008152600401611285906140f8565b60405180910390fd5b5f8211801561129e575060058211155b6112dd576040517f08c379a00000000000000000000000000000000000000000000000000000000081526004016112d490614186565b60405180910390fd5b600f5f9054906101000a900460ff1661132b576040517f08c379a0000000000000000000000000000000000000000000000000000000008152600401611322906141ee565b60405180910390fd5b81600e54611339919061420c565b34101561137b576040517f08c379a0000000000000000000000000000000000000000000000000000000008152600401611372906142bd565b60405180910390fd5b5f5b828110156113ba575f61139a82846113959190613bee565b610784565b90506113a63382611915565b5080806113b290613c89565b91505061137d565b505050565b5f60055f8473ffffffffffffffffffffffffffffffffffffffff1673ffffffffffffffffffffffffffffffffffffffff1681526020019081526020015f205f8373ffffffffffffffffffffffffffffffffffffffff1673ffffffffffffffffffffffffffffffffffffffff1681526020019081526020015f205f9054906101000a900460ff16905092915050565b600f5f9054906101000a900460ff1681565b61146761188b565b5f73ffffffffffffffffffffffffffffffffffffffff168173ffffffffffffffffffffffffffffffffffffffff16036114d5576040517f08c379a00000000000000000000000000000000000000000000000000000000081526004016114cc9061434b565b60405180910390fd5b6114de81611d50565b50565b60605f60016114ef846120e0565b0190505f8167ffffffffffffffff81111561150d5761150c61324c565b5b6040519080825280601f01601f19166020018201604052801561153f5781602001600182028036833780820191505090505b5090505f82602001820190505b6001156115a0578080600190039150507f3031323334353637383961626364656600000000000000000000000000000000600a86061a8153600a858161159557611594614369565b5b0494505f850361154c575b819350505050919050565b60605f8251036115cb5760405180602001604052805f8152509050611705565b5f604051806060016040528060408152602001614c5f6040913990505f6003600285516115f89190613bee565b6116029190614396565b600461160e919061420c565b67ffffffffffffffff8111156116275761162661324c565b5b6040519080825280601f01601f1916602001820160405280156116595781602001600182028036833780820191505090505b509050600182016020820185865187015b808210156116c5576003820191508151603f8160121c168501518453600184019350603f81600c1c168501518453600184019350603f8160061c168501518453600184019350603f811685015184536001840193505061166a565b50506003865106600181146116e157600281146116f4576116fc565b603d6001830353603d60028303536116fc565b603d60018303535b50505080925050505b919050565b5f7f780e9d63000000000000000000000000000000000000000000000000000000007bffffffffffffffffffffffffffffffffffffffffffffffffffffffff1916827bffffffffffffffffffffffffffffffffffffffffffffffffffffffff1916148061177c575061177b82612231565b5b9050919050565b61178c81612312565b6117cb576040517f08c379a00000000000000000000000000000000000000000000000000000000081526004016117c290614002565b60405180910390fd5b50565b5f33905090565b8160045f8381526020019081526020015f205f6101000a81548173ffffffffffffffffffffffffffffffffffffffff021916908373ffffffffffffffffffffffffffffffffffffffff160217905550808273ffffffffffffffffffffffffffffffffffffffff1661184583610e32565b73ffffffffffffffffffffffffffffffffffffffff167f8c5be1e5ebec7d5bd14f71427d1e84f3dd0314c0f7b2291e5b200ac8c7c3b92560405160405180910390a45050565b6118936117ce565b73ffffffffffffffffffffffffffffffffffffffff166118b161103a565b73ffffffffffffffffffffffffffffffffffffffff1614611907576040517f08c379a00000000000000000000000000000000000000000000000000000000081526004016118fe90614410565b60405180910390fd5b565b5f815f01549050919050565b61191f600c611909565b611927610a19565b14611967576040517f08c379a000000000000000000000000000000000000000000000000000000000815260040161195e90614478565b60405180910390fd5b5f611972600c611909565b905061197e8382612352565b611988818361236f565b611992600c6123da565b505050565b5f806119a283610e32565b90508073ffffffffffffffffffffffffffffffffffffffff168473ffffffffffffffffffffffffffffffffffffffff1614806119e457506119e381856113bf565b5b80611a2257508373ffffffffffffffffffffffffffffffffffffffff16611a0a846108bc565b73ffffffffffffffffffffffffffffffffffffffff16145b91505092915050565b8273ffffffffffffffffffffffffffffffffffffffff16611a4b82610e32565b73ffffffffffffffffffffffffffffffffffffffff1614611aa1576040517f08c379a0000000000000000000000000000000000000000000000000000000008152600401611a9890614506565b60405180910390fd5b5f73ffffffffffffffffffffffffffffffffffffffff168273ffffffffffffffffffffffffffffffffffffffff1603611b0f576040517f08c379a0000000000000000000000000000000000000000000000000000000008152600401611b0690614594565b60405180910390fd5b611b1c83838360016123ee565b8273ffffffffffffffffffffffffffffffffffffffff16611b3c82610e32565b73ffffffffffffffffffffffffffffffffffffffff1614611b92576040517f08c379a0000000000000000000000000000000000000000000000000000000008152600401611b8990614506565b60405180910390fd5b60045f8281526020019081526020015f205f6101000a81549073ffffffffffffffffffffffffffffffffffffffff0219169055600160035f8573ffffffffffffffffffffffffffffffffffffffff1673ffffffffffffffffffffffffffffffffffffffff1681526020019081526020015f205f8282540392505081905550600160035f8473ffffffffffffffffffffffffffffffffffffffff1673ffffffffffffffffffffffffffffffffffffffff1681526020019081526020015f205f82825401925050819055508160025f8381526020019081526020015f205f6101000a81548173ffffffffffffffffffffffffffffffffffffffff021916908373ffffffffffffffffffffffffffffffffffffffff160217905550808273ffffffffffffffffffffffffffffffffffffffff168473ffffffffffffffffffffffffffffffffffffffff167fddf252ad1be2c89b69c2b068fc378daa952ba7f163c4a11628f55a4df523b3ef60405160405180910390a4611d128383836001612400565b505050565b5f60025f8381526020019081526020015f205f9054906101000a900473ffffffffffffffffffffffffffffffffffffffff169050919050565b5f600b5f9054906101000a900473ffffffffffffffffffffffffffffffffffffffff16905081600b5f6101000a81548173ffffffffffffffffffffffffffffffffffffffff021916908373ffffffffffffffffffffffffffffffffffffffff1602179055508173ffffffffffffffffffffffffffffffffffffffff168173ffffffffffffffffffffffffffffffffffffffff167f8be0079c531659141344cd1fd0a4f28419497f9722a3daafe3b4186f6b6457e060405160405180910390a35050565b8173ffffffffffffffffffffffffffffffffffffffff168373ffffffffffffffffffffffffffffffffffffffff1603611e81576040517f08c379a0000000000000000000000000000000000000000000000000000000008152600401611e78906145fc565b60405180910390fd5b8060055f8573ffffffffffffffffffffffffffffffffffffffff1673ffffffffffffffffffffffffffffffffffffffff1681526020019081526020015f205f8473ffffffffffffffffffffffffffffffffffffffff1673ffffffffffffffffffffffffffffffffffffffff1681526020019081526020015f205f6101000a81548160ff0219169083151502179055508173ffffffffffffffffffffffffffffffffffffffff168373ffffffffffffffffffffffffffffffffffffffff167f17307eab39ab6107e8899845ad3d59bd9653f200f220920489ca2b5937696c3183604051611f6d9190612ee1565b60405180910390a3505050565b611f85848484611a2b565b611f9184848484612406565b611fd0576040517f08c379a0000000000000000000000000000000000000000000000000000000008152600401611fc79061468a565b60405180910390fd5b50505050565b6060611fe182611783565b5f600a5f8481526020019081526020015f208054611ffe90613a75565b80601f016020809104026020016040519081016040528092919081815260200182805461202a90613a75565b80156120755780601f1061204c57610100808354040283529160200191612075565b820191905f5260205f20905b81548152906001019060200180831161205857829003601f168201915b505050505090505f612085612588565b90505f8151036120995781925050506120db565b5f825111156120cd5780826040516020016120b59291906146a8565b604051602081830303815290604052925050506120db565b6120d68461259e565b925050505b919050565b5f805f90507a184f03e93ff9f4daa797ed6e38ed64bf6a1f010000000000000000831061213c577a184f03e93ff9f4daa797ed6e38ed64bf6a1f010000000000000000838161213257612131614369565b5b0492506040810190505b6d04ee2d6d415b85acef81000000008310612179576d04ee2d6d415b85acef8100000000838161216f5761216e614369565b5b0492506020810190505b662386f26fc1000083106121a857662386f26fc10000838161219e5761219d614369565b5b0492506010810190505b6305f5e10083106121d1576305f5e10083816121c7576121c6614369565b5b0492506008810190505b61271083106121f65761271083816121ec576121eb614369565b5b0492506004810190505b60648310612219576064838161220f5761220e614369565b5b0492506002810190505b600a8310612228576001810190505b80915050919050565b5f7f80ac58cd000000000000000000000000000000000000000000000000000000007bffffffffffffffffffffffffffffffffffffffffffffffffffffffff1916827bffffffffffffffffffffffffffffffffffffffffffffffffffffffff191614806122fb57507f5b5e139f000000000000000000000000000000000000000000000000000000007bffffffffffffffffffffffffffffffffffffffffffffffffffffffff1916827bffffffffffffffffffffffffffffffffffffffffffffffffffffffff1916145b8061230b575061230a82612603565b5b9050919050565b5f8073ffffffffffffffffffffffffffffffffffffffff1661233383611d17565b73ffffffffffffffffffffffffffffffffffffffff1614159050919050565b61236b828260405180602001604052805f81525061266c565b5050565b61237882612312565b6123b7576040517f08c379a00000000000000000000000000000000000000000000000000000000081526004016123ae9061473b565b60405180910390fd5b80600a5f8481526020019081526020015f2090816123d591906148f6565b505050565b6001815f015f828254019250508190555050565b6123fa848484846126c6565b50505050565b50505050565b5f6124268473ffffffffffffffffffffffffffffffffffffffff16612821565b1561257b578373ffffffffffffffffffffffffffffffffffffffff1663150b7a0261244f6117ce565b8786866040518563ffffffff1660e01b81526004016124719493929190614a17565b6020604051808303815f875af19250505080156124ac57506040513d601f19601f820116820180604052508101906124a99190614a75565b60015b61252b573d805f81146124da576040519150601f19603f3d011682016040523d82523d5f602084013e6124df565b606091505b505f815103612523576040517f08c379a000000000000000000000000000000000000000000000000000000000815260040161251a9061468a565b60405180910390fd5b805181602001fd5b63150b7a0260e01b7bffffffffffffffffffffffffffffffffffffffffffffffffffffffff1916817bffffffffffffffffffffffffffffffffffffffffffffffffffffffff191614915050612580565b600190505b949350505050565b606060405180602001604052805f815250905090565b60606125a982611783565b5f6125b2612588565b90505f8151116125d05760405180602001604052805f8152506125fb565b806125da846114e1565b6040516020016125eb9291906146a8565b6040516020818303038152906040525b915050919050565b5f7f01ffc9a7000000000000000000000000000000000000000000000000000000007bffffffffffffffffffffffffffffffffffffffffffffffffffffffff1916827bffffffffffffffffffffffffffffffffffffffffffffffffffffffff1916149050919050565b6126768383612843565b6126825f848484612406565b6126c1576040517f08c379a00000000000000000000000000000000000000000000000000000000081526004016126b89061468a565b60405180910390fd5b505050565b6126d284848484612a56565b6001811115612716576040517f08c379a000000000000000000000000000000000000000000000000000000000815260040161270d90614b10565b60405180910390fd5b5f8290505f73ffffffffffffffffffffffffffffffffffffffff168573ffffffffffffffffffffffffffffffffffffffff160361275b5761275681612a5c565b61279a565b8373ffffffffffffffffffffffffffffffffffffffff168573ffffffffffffffffffffffffffffffffffffffff1614612799576127988582612aa0565b5b5b5f73ffffffffffffffffffffffffffffffffffffffff168473ffffffffffffffffffffffffffffffffffffffff16036127db576127d681612bf6565b61281a565b8473ffffffffffffffffffffffffffffffffffffffff168473ffffffffffffffffffffffffffffffffffffffff1614612819576128188482612cb6565b5b5b5050505050565b5f808273ffffffffffffffffffffffffffffffffffffffff163b119050919050565b5f73ffffffffffffffffffffffffffffffffffffffff168273ffffffffffffffffffffffffffffffffffffffff16036128b1576040517f08c379a00000000000000000000000000000000000000000000000000000000081526004016128a890614b78565b60405180910390fd5b6128ba81612312565b156128fa576040517f08c379a00000000000000000000000000000000000000000000000000000000081526004016128f190614be0565b60405180910390fd5b6129075f838360016123ee565b61291081612312565b15612950576040517f08c379a000000000000000000000000000000000000000000000000000000000815260040161294790614be0565b60405180910390fd5b600160035f8473ffffffffffffffffffffffffffffffffffffffff1673ffffffffffffffffffffffffffffffffffffffff1681526020019081526020015f205f82825401925050819055508160025f8381526020019081526020015f205f6101000a81548173ffffffffffffffffffffffffffffffffffffffff021916908373ffffffffffffffffffffffffffffffffffffffff160217905550808273ffffffffffffffffffffffffffffffffffffffff165f73ffffffffffffffffffffffffffffffffffffffff167fddf252ad1be2c89b69c2b068fc378daa952ba7f163c4a11628f55a4df523b3ef60405160405180910390a4612a525f83836001612400565b5050565b50505050565b60088054905060095f8381526020019081526020015f2081905550600881908060018154018082558091505060019003905f5260205f20015f909190919091505550565b5f6001612aac84610eb6565b612ab69190614bfe565b90505f60075f8481526020019081526020015f20549050818114612b8d575f60065f8673ffffffffffffffffffffffffffffffffffffffff1673ffffffffffffffffffffffffffffffffffffffff1681526020019081526020015f205f8481526020019081526020015f205490508060065f8773ffffffffffffffffffffffffffffffffffffffff1673ffffffffffffffffffffffffffffffffffffffff1681526020019081526020015f205f8481526020019081526020015f20819055508160075f8381526020019081526020015f2081905550505b60075f8481526020019081526020015f205f905560065f8573ffffffffffffffffffffffffffffffffffffffff1673ffffffffffffffffffffffffffffffffffffffff1681526020019081526020015f205f8381526020019081526020015f205f905550505050565b5f6001600880549050612c099190614bfe565b90505f60095f8481526020019081526020015f205490505f60088381548110612c3557612c34613efd565b5b905f5260205f20015490508060088381548110612c5557612c54613efd565b5b905f5260205f2001819055508160095f8381526020019081526020015f208190555060095f8581526020019081526020015f205f90556008805480612c9d57612c9c614c31565b5b600190038181905f5260205f20015f9055905550505050565b5f612cc083610eb6565b90508160065f8573ffffffffffffffffffffffffffffffffffffffff1673ffffffffffffffffffffffffffffffffffffffff1681526020019081526020015f205f8381526020019081526020015f20819055508060075f8481526020019081526020015f2081905550505050565b5f604051905090565b5f80fd5b5f80fd5b5f819050919050565b612d5181612d3f565b8114612d5b575f80fd5b50565b5f81359050612d6c81612d48565b92915050565b5f60208284031215612d8757612d86612d37565b5b5f612d9484828501612d5e565b91505092915050565b5f81519050919050565b5f82825260208201905092915050565b5f5b83811015612dd4578082015181840152602081019050612db9565b5f8484015250505050565b5f601f19601f8301169050919050565b5f612df982612d9d565b612e038185612da7565b9350612e13818560208601612db7565b612e1c81612ddf565b840191505092915050565b5f6020820190508181035f830152612e3f8184612def565b905092915050565b5f7fffffffff0000000000000000000000000000000000000000000000000000000082169050919050565b612e7b81612e47565b8114612e85575f80fd5b50565b5f81359050612e9681612e72565b92915050565b5f60208284031215612eb157612eb0612d37565b5b5f612ebe84828501612e88565b91505092915050565b5f8115159050919050565b612edb81612ec7565b82525050565b5f602082019050612ef45f830184612ed2565b92915050565b5f73ffffffffffffffffffffffffffffffffffffffff82169050919050565b5f612f2382612efa565b9050919050565b612f3381612f19565b82525050565b5f602082019050612f4c5f830184612f2a565b92915050565b612f5b81612f19565b8114612f65575f80fd5b50565b5f81359050612f7681612f52565b92915050565b5f8060408385031215612f9257612f91612d37565b5b5f612f9f85828601612f68565b9250506020612fb085828601612d5e565b9150509250929050565b612fc381612d3f565b82525050565b5f602082019050612fdc5f830184612fba565b92915050565b5f805f60608486031215612ff957612ff8612d37565b5b5f61300686828701612f68565b935050602061301786828701612f68565b925050604061302886828701612d5e565b9150509250925092565b5f80fd5b5f80fd5b5f80fd5b5f8083601f84011261305357613052613032565b5b8235905067ffffffffffffffff8111156130705761306f613036565b5b60208301915083602082028301111561308c5761308b61303a565b5b9250929050565b5f80602083850312156130a9576130a8612d37565b5b5f83013567ffffffffffffffff8111156130c6576130c5612d3b565b5b6130d28582860161303e565b92509250509250929050565b5f602082840312156130f3576130f2612d37565b5b5f61310084828501612f68565b91505092915050565b5f81519050919050565b5f82825260208201905092915050565b5f819050602082019050919050565b61313b81612d3f565b82525050565b5f61314c8383613132565b60208301905092915050565b5f602082019050919050565b5f61316e82613109565b6131788185613113565b935061318383613123565b805f5b838110156131b357815161319a8882613141565b97506131a583613158565b925050600181019050613186565b5085935050505092915050565b5f6020820190508181035f8301526131d88184613164565b905092915050565b6131e981612ec7565b81146131f3575f80fd5b50565b5f81359050613204816131e0565b92915050565b5f80604083850312156132205761321f612d37565b5b5f61322d85828601612f68565b925050602061323e858286016131f6565b9150509250929050565b5f80fd5b7f4e487b71000000000000000000000000000000000000000000000000000000005f52604160045260245ffd5b61328282612ddf565b810181811067ffffffffffffffff821117156132a1576132a061324c565b5b80604052505050565b5f6132b3612d2e565b90506132bf8282613279565b919050565b5f67ffffffffffffffff8211156132de576132dd61324c565b5b6132e782612ddf565b9050602081019050919050565b828183375f83830152505050565b5f61331461330f846132c4565b6132aa565b9050828152602081018484840111156133305761332f613248565b5b61333b8482856132f4565b509392505050565b5f82601f83011261335757613356613032565b5b8135613367848260208601613302565b91505092915050565b5f805f806080858703121561338857613387612d37565b5b5f61339587828801612f68565b94505060206133a687828801612f68565b93505060406133b787828801612d5e565b925050606085013567ffffffffffffffff8111156133d8576133d7612d3b565b5b6133e487828801613343565b91505092959194509250565b5f6020828403121561340557613404612d37565b5b5f613412848285016131f6565b91505092915050565b5f806040838503121561343157613430612d37565b5b5f61343e85828601612f68565b925050602061344f85828601612f68565b9150509250929050565b5f81905092915050565b7f3c73766720786d6c6e733d27687474703a2f2f7777772e77332e6f72672f32305f8201527f30302f73766727207072657365727665417370656374526174696f3d27784d6960208201527f6e794d696e206d656574272076696577426f783d27302030203335302033353060408201527f273e000000000000000000000000000000000000000000000000000000000000606082015250565b5f613509606283613459565b915061351482613463565b606282019050919050565b7f3c7374796c653e2e62617365207b2066696c6c3a2077686974653b20666f6e745f8201527f2d66616d696c793a2073657269663b20666f6e742d73697a653a20323570783b60208201527f207d3c2f7374796c653e00000000000000000000000000000000000000000000604082015250565b5f61359f604a83613459565b91506135aa8261351f565b604a82019050919050565b7f3c726563742077696474683d273130302527206865696768743d2731303025275f8201527f2066696c6c3d2772656427202f3e000000000000000000000000000000000000602082015250565b5f61360f602e83613459565b915061361a826135b5565b602e82019050919050565b7f3c7465787420783d273530252720793d273430252720636c6173733d276261735f8201527f652720646f6d696e616e742d626173656c696e653d276d6964646c652720746560208201527f78742d616e63686f723d276d6964646c65273e00000000000000000000000000604082015250565b5f6136a5605383613459565b91506136b082613625565b605382019050919050565b7f3c747370616e20793d273530252720783d27353025273e4e4654205469636b655f8201527f7420230000000000000000000000000000000000000000000000000000000000602082015250565b5f613715602383613459565b9150613720826136bb565b602382019050919050565b5f61373582612d9d565b61373f8185613459565b935061374f818560208601612db7565b80840191505092915050565b7f3c2f747370616e3e3c2f746578743e3c2f7376673e00000000000000000000005f82015250565b5f61378f601583613459565b915061379a8261375b565b601582019050919050565b5f6137af826134fd565b91506137ba82613593565b91506137c582613603565b91506137d082613699565b91506137db82613709565b91506137e7828461372b565b91506137f282613783565b915081905092915050565b7f7b226e616d65223a20224e4654205469636b65742023000000000000000000005f82015250565b5f613831601683613459565b915061383c826137fd565b601682019050919050565b7f222c20226465736372697074696f6e223a202241207469636b657420746861745f8201527f20676976657320796f752061636365737320746f206120636f6f6c206576656e60208201527f7421222c2022696d616765223a2022646174613a696d6167652f7376672b786d60408201527f6c3b6261736536342c0000000000000000000000000000000000000000000000606082015250565b5f6138ed606983613459565b91506138f882613847565b606982019050919050565b7f222c202261747472696275746573223a205b7b2274726169745f74797065223a5f8201527f202254797065222c202276616c7565223a202242617365205469636b6574227d60208201527f5d7d000000000000000000000000000000000000000000000000000000000000604082015250565b5f613983604283613459565b915061398e82613903565b604282019050919050565b5f6139a382613825565b91506139af828561372b565b91506139ba826138e1565b91506139c6828461372b565b91506139d182613977565b91508190509392505050565b7f646174613a6170706c69636174696f6e2f6a736f6e3b6261736536342c0000005f82015250565b5f613a11601d83613459565b9150613a1c826139dd565b601d82019050919050565b5f613a3182613a05565b9150613a3d828461372b565b915081905092915050565b7f4e487b71000000000000000000000000000000000000000000000000000000005f52602260045260245ffd5b5f6002820490506001821680613a8c57607f821691505b602082108103613a9f57613a9e613a48565b5b50919050565b7f4552433732313a20617070726f76616c20746f2063757272656e74206f776e655f8201527f7200000000000000000000000000000000000000000000000000000000000000602082015250565b5f613aff602183612da7565b9150613b0a82613aa5565b604082019050919050565b5f6020820190508181035f830152613b2c81613af3565b9050919050565b7f4552433732313a20617070726f76652063616c6c6572206973206e6f7420746f5f8201527f6b656e206f776e6572206f7220617070726f76656420666f7220616c6c000000602082015250565b5f613b8d603d83612da7565b9150613b9882613b33565b604082019050919050565b5f6020820190508181035f830152613bba81613b81565b9050919050565b7f4e487b71000000000000000000000000000000000000000000000000000000005f52601160045260245ffd5b5f613bf882612d3f565b9150613c0383612d3f565b9250828201905080821115613c1b57613c1a613bc1565b5b92915050565b7f4e6f7420656e6f756768204e465473206c65667420746f2072657365727665005f82015250565b5f613c55601f83612da7565b9150613c6082613c21565b602082019050919050565b5f6020820190508181035f830152613c8281613c49565b9050919050565b5f613c9382612d3f565b91507fffffffffffffffffffffffffffffffffffffffffffffffffffffffffffffffff8203613cc557613cc4613bc1565b5b600182019050919050565b7f4552433732313a2063616c6c6572206973206e6f7420746f6b656e206f776e655f8201527f72206f7220617070726f76656400000000000000000000000000000000000000602082015250565b5f613d2a602d83612da7565b9150613d3582613cd0565b604082019050919050565b5f6020820190508181035f830152613d5781613d1e565b9050919050565b7f455243373231456e756d657261626c653a206f776e657220696e646578206f755f8201527f74206f6620626f756e6473000000000000000000000000000000000000000000602082015250565b5f613db8602b83612da7565b9150613dc382613d5e565b604082019050919050565b5f6020820190508181035f830152613de581613dac565b9050919050565b7f4e6f206574686572206c65667420746f207769746864726177000000000000005f82015250565b5f613e20601983612da7565b9150613e2b82613dec565b602082019050919050565b5f6020820190508181035f830152613e4d81613e14565b9050919050565b5f81905092915050565b50565b5f613e6c5f83613e54565b9150613e7782613e5e565b5f82019050919050565b5f613e8b82613e61565b9150819050919050565b7f5472616e73666572206661696c65642e000000000000000000000000000000005f82015250565b5f613ec9601083612da7565b9150613ed482613e95565b602082019050919050565b5f6020820190508181035f830152613ef681613ebd565b9050919050565b7f4e487b71000000000000000000000000000000000000000000000000000000005f52603260045260245ffd5b7f455243373231456e756d657261626c653a20676c6f62616c20696e646578206f5f8201527f7574206f6620626f756e64730000000000000000000000000000000000000000602082015250565b5f613f84602c83612da7565b9150613f8f82613f2a565b604082019050919050565b5f6020820190508181035f830152613fb181613f78565b9050919050565b7f4552433732313a20696e76616c696420746f6b656e20494400000000000000005f82015250565b5f613fec601883612da7565b9150613ff782613fb8565b602082019050919050565b5f6020820190508181035f83015261401981613fe0565b9050919050565b7f4552433732313a2061646472657373207a65726f206973206e6f7420612076615f8201527f6c6964206f776e65720000000000000000000000000000000000000000000000602082015250565b5f61407a602983612da7565b915061408582614020565b604082019050919050565b5f6020820190508181035f8301526140a78161406e565b9050919050565b7f4e6f7420656e6f756768204e4654207469636b657473206c65667421000000005f82015250565b5f6140e2601c83612da7565b91506140ed826140ae565b602082019050919050565b5f6020820190508181035f83015261410f816140d6565b9050919050565b7f43616e6e6f74206d696e7420737065636966696564206e756d626572206f66205f8201527f4e4654207469636b6574732e0000000000000000000000000000000000000000602082015250565b5f614170602c83612da7565b915061417b82614116565b604082019050919050565b5f6020820190508181035f83015261419d81614164565b9050919050565b7f53616c65206973206e6f742063757272656e746c7920616374697665210000005f82015250565b5f6141d8601d83612da7565b91506141e3826141a4565b602082019050919050565b5f6020820190508181035f830152614205816141cc565b9050919050565b5f61421682612d3f565b915061422183612d3f565b925082820261422f81612d3f565b9150828204841483151761424657614245613bc1565b5b5092915050565b7f4e6f7420656e6f75676820657468657220746f207075726368617365204e46545f8201527f732e000000000000000000000000000000000000000000000000000000000000602082015250565b5f6142a7602283612da7565b91506142b28261424d565b604082019050919050565b5f6020820190508181035f8301526142d48161429b565b9050919050565b7f4f776e61626c653a206e6577206f776e657220697320746865207a65726f20615f8201527f6464726573730000000000000000000000000000000000000000000000000000602082015250565b5f614335602683612da7565b9150614340826142db565b604082019050919050565b5f6020820190508181035f83015261436281614329565b9050919050565b7f4e487b71000000000000000000000000000000000000000000000000000000005f52601260045260245ffd5b5f6143a082612d3f565b91506143ab83612d3f565b9250826143bb576143ba614369565b5b828204905092915050565b7f4f776e61626c653a2063616c6c6572206973206e6f7420746865206f776e65725f82015250565b5f6143fa602083612da7565b9150614405826143c6565b602082019050919050565b5f6020820190508181035f830152614427816143ee565b9050919050565b7f496e646578696e67206861732062726f6b656e20646f776e21000000000000005f82015250565b5f614462601983612da7565b915061446d8261442e565b602082019050919050565b5f6020820190508181035f83015261448f81614456565b9050919050565b7f4552433732313a207472616e736665722066726f6d20696e636f7272656374205f8201527f6f776e6572000000000000000000000000000000000000000000000000000000602082015250565b5f6144f0602583612da7565b91506144fb82614496565b604082019050919050565b5f6020820190508181035f83015261451d816144e4565b9050919050565b7f4552433732313a207472616e7366657220746f20746865207a65726f206164645f8201527f7265737300000000000000000000000000000000000000000000000000000000602082015250565b5f61457e602483612da7565b915061458982614524565b604082019050919050565b5f6020820190508181035f8301526145ab81614572565b9050919050565b7f4552433732313a20617070726f766520746f2063616c6c6572000000000000005f82015250565b5f6145e6601983612da7565b91506145f1826145b2565b602082019050919050565b5f6020820190508181035f830152614613816145da565b9050919050565b7f4552433732313a207472616e7366657220746f206e6f6e2045524337323152655f8201527f63656976657220696d706c656d656e7465720000000000000000000000000000602082015250565b5f614674603283612da7565b915061467f8261461a565b604082019050919050565b5f6020820190508181035f8301526146a181614668565b9050919050565b5f6146b3828561372b565b91506146bf828461372b565b91508190509392505050565b7f45524337323155524953746f726167653a2055524920736574206f66206e6f6e5f8201527f6578697374656e7420746f6b656e000000000000000000000000000000000000602082015250565b5f614725602e83612da7565b9150614730826146cb565b604082019050919050565b5f6020820190508181035f83015261475281614719565b9050919050565b5f819050815f5260205f209050919050565b5f6020601f8301049050919050565b5f82821b905092915050565b5f600883026147b57fffffffffffffffffffffffffffffffffffffffffffffffffffffffffffffffff8261477a565b6147bf868361477a565b95508019841693508086168417925050509392505050565b5f819050919050565b5f6147fa6147f56147f084612d3f565b6147d7565b612d3f565b9050919050565b5f819050919050565b614813836147e0565b61482761481f82614801565b848454614786565b825550505050565b5f90565b61483b61482f565b61484681848461480a565b505050565b5b818110156148695761485e5f82614833565b60018101905061484c565b5050565b601f8211156148ae5761487f81614759565b6148888461476b565b81016020851015614897578190505b6148ab6148a38561476b565b83018261484b565b50505b505050565b5f82821c905092915050565b5f6148ce5f19846008026148b3565b1980831691505092915050565b5f6148e683836148bf565b9150826002028217905092915050565b6148ff82612d9d565b67ffffffffffffffff8111156149185761491761324c565b5b6149228254613a75565b61492d82828561486d565b5f60209050601f83116001811461495e575f841561494c578287015190505b61495685826148db565b8655506149bd565b601f19841661496c86614759565b5f5b828110156149935784890151825560018201915060208501945060208101905061496e565b868310156149b057848901516149ac601f8916826148bf565b8355505b6001600288020188555050505b505050505050565b5f81519050919050565b5f82825260208201905092915050565b5f6149e9826149c5565b6149f381856149cf565b9350614a03818560208601612db7565b614a0c81612ddf565b840191505092915050565b5f608082019050614a2a5f830187612f2a565b614a376020830186612f2a565b614a446040830185612fba565b8181036060830152614a5681846149df565b905095945050505050565b5f81519050614a6f81612e72565b92915050565b5f60208284031215614a8a57614a89612d37565b5b5f614a9784828501614a61565b91505092915050565b7f455243373231456e756d657261626c653a20636f6e73656375746976652074725f8201527f616e7366657273206e6f7420737570706f727465640000000000000000000000602082015250565b5f614afa603583612da7565b9150614b0582614aa0565b604082019050919050565b5f6020820190508181035f830152614b2781614aee565b9050919050565b7f4552433732313a206d696e7420746f20746865207a65726f20616464726573735f82015250565b5f614b62602083612da7565b9150614b6d82614b2e565b602082019050919050565b5f6020820190508181035f830152614b8f81614b56565b9050919050565b7f4552433732313a20746f6b656e20616c7265616479206d696e746564000000005f82015250565b5f614bca601c83612da7565b9150614bd582614b96565b602082019050919050565b5f6020820190508181035f830152614bf781614bbe565b9050919050565b5f614c0882612d3f565b9150614c1383612d3f565b9250828203905081811115614c2b57614c2a613bc1565b5b92915050565b7f4e487b71000000000000000000000000000000000000000000000000000000005f52603160045260245ffdfe4142434445464748494a4b4c4d4e4f505152535455565758595a6162636465666768696a6b6c6d6e6f707172737475767778797a303132333435363738392b2fa26469706673582212205929d360574234d00a59dc35e01ae4d9ecd427fda4f065b1758033fb9104671564736f6c63430008140033",
  "immutableReferences": {},
  "source": "//SPDX-License-Identifier: MIT\npragma solidity ^0.8.19;\n\nimport \"@openzeppelin/contracts/token/ERC721/ERC721.sol\";\nimport \"@openzeppelin/contracts/token/ERC721/extensions/ERC721Enumerable.sol\";\nimport \"@openzeppelin/contracts/token/ERC721/extensions/ERC721URIStorage.sol\";\nimport \"@openzeppelin/contracts/access/Ownable.sol\";\nimport \"@openzeppelin/contracts/utils/Counters.sol\";\nimport \"@openzeppelin/contracts/utils/Base64.sol\";\nimport \"@openzeppelin/contracts/utils/Strings.sol\";\n\ncontract NftTicketing is ERC721, ERC721Enumerable, ERC721URIStorage, Ownable  {\n    using Counters for Counters.Counter;\n\n    Counters.Counter private _tokenIds;\n\n    // Total number of tickets available for the event\n    uint public constant MAX_SUPPLY = 10000;\n\n    // Number of tickets you can book at a time; prevents spamming\n    uint public constant MAX_PER_MINT = 5;\n\n    string public baseTokenURI;\n\n    // Price of a single ticket\n    uint public price = 0.05 ether;\n\n    // Flag to turn sales on and off\n    bool public saleIsActive = false;\n\n    // Give collection a name and a ticker\n    constructor() ERC721(\"My NFT Tickets\", \"MNT\") {}\n\n    // Generate NFT metadata\n    function generateMetadata(uint tokenId) public pure returns (string memory) {\n        string memory svg = string(abi.encodePacked(\n            \"<svg xmlns='http://www.w3.org/2000/svg' preserveAspectRatio='xMinyMin meet' viewBox='0 0 350 350'>\",\n            \"<style>.base { fill: white; font-family: serif; font-size: 25px; }</style>\",\n            \"<rect width='100%' height='100%' fill='red' />\",\n            \"<text x='50%' y='40%' class='base' dominant-baseline='middle' text-anchor='middle'>\",\n            \"<tspan y='50%' x='50%'>NFT Ticket #\",\n            Strings.toString(tokenId),\n            \"</tspan></text></svg>\"\n        ));\n\n        string memory json = Base64.encode(\n            bytes(\n                string(\n                    abi.encodePacked(\n                        '{\"name\": \"NFT Ticket #',\n                        Strings.toString(tokenId),\n                        '\", \"description\": \"A ticket that gives you access to a cool event!\", \"image\": \"data:image/svg+xml;base64,',\n                        Base64.encode(bytes(svg)),\n                        '\", \"attributes\": [{\"trait_type\": \"Type\", \"value\": \"Base Ticket\"}]}'\n                    )\n                )\n            )\n        );\n\n        string memory metadata = string(\n            abi.encodePacked(\"data:application/json;base64,\", json)\n        );\n        return metadata;\n    }\n\n    // Reserve tickets to creator wallet\n    function reserveNfts(uint _count) public onlyOwner {\n        uint nextId = _tokenIds.current();\n\n        require(nextId + _count < MAX_SUPPLY, \"Not enough NFTs left to reserve\");\n\n        for (uint i = 0; i < _count; i++) {\n            string memory metadata = generateMetadata(nextId + i);\n            _mintSingleNft(msg.sender, metadata);\n        }\n    }\n\n    // Airdrop NFTs\n    function airDropNfts(address[] calldata _wAddresses) public onlyOwner {\n        uint nextId = _tokenIds.current();\n        uint count = _wAddresses.length;\n\n        require(nextId + count < MAX_SUPPLY, \"Not enough NFTs left to reserve\");\n\n        for (uint i = 0; i < count; i++) {\n            string memory metadata = generateMetadata(nextId + i);\n            _mintSingleNft(_wAddresses[i], metadata);\n        }\n    }\n\n    // Set Sale state\n    function setSaleState(bool _activeState) public onlyOwner {\n        saleIsActive = _activeState;\n    }\n\n    // Allow public to mint NFTs\n    function mintNfts(uint _count) public payable {\n\n        uint nextId = _tokenIds.current();\n\n        require(nextId + _count < MAX_SUPPLY, \"Not enough NFT tickets left!\");\n        require(_count > 0 && _count <= MAX_PER_MINT, \"Cannot mint specified number of NFT tickets.\");\n        require(saleIsActive, \"Sale is not currently active!\");\n        require(msg.value >= price * _count, \"Not enough ether to purchase NFTs.\");\n\n        for (uint i = 0; i < _count; i++) {\n            string memory metadata = generateMetadata(nextId + i);\n            _mintSingleNft(msg.sender, metadata);\n        }\n    }\n\n    // Mint a single NFT ticket\n    function _mintSingleNft(address _wAddress, string memory _tokenURI) private {\n        // Sanity check for absolute worst case scenario\n        require(totalSupply() == _tokenIds.current(), \"Indexing has broken down!\");\n        uint newTokenID = _tokenIds.current();\n        _safeMint(_wAddress, newTokenID);\n        _setTokenURI(newTokenID, _tokenURI);\n        _tokenIds.increment();\n    }\n\n    // Update price\n    function updatePrice(uint _newPrice) public onlyOwner {\n        price = _newPrice;\n    }\n\n    // Withdraw ether\n    function withdraw() public payable onlyOwner {\n        uint balance = address(this).balance;\n        require(balance > 0, \"No ether left to withdraw\");\n\n        (bool success, ) = (msg.sender).call{value: balance}(\"\");\n        require(success, \"Transfer failed.\");\n    }\n\n    // Get tokens of an owner\n    function tokensOfOwner(address _owner) external view returns (uint[] memory) {\n\n        uint tokenCount = balanceOf(_owner);\n        uint[] memory tokensId = new uint256[](tokenCount);\n\n        for (uint i = 0; i < tokenCount; i++) {\n            tokensId[i] = tokenOfOwnerByIndex(_owner, i);\n        }\n        return tokensId;\n    }\n\n    // The following functions are overrides required by Solidity.\n    function _beforeTokenTransfer(address from, address to, uint256 tokenId, uint256 batchSize)\n        internal\n        override(ERC721, ERC721Enumerable)\n    {\n        super._beforeTokenTransfer(from, to, tokenId, batchSize);\n    }\n\n    function _burn(uint256 tokenId) internal override(ERC721, ERC721URIStorage) {\n        super._burn(tokenId);\n    }\n\n    function tokenURI(uint256 tokenId)\n        public\n        view\n        override(ERC721, ERC721URIStorage)\n        returns (string memory)\n    {\n        return super.tokenURI(tokenId);\n    }\n\n    function supportsInterface(bytes4 interfaceId)\n        public\n        view\n        override(ERC721, ERC721Enumerable)\n        returns (bool)\n    {\n        return super.supportsInterface(interfaceId);\n    }\n}",
  "sourcePath": "/Users/kush/Documents/git-everything/FYND/ticket4web3/contracts/NftTicketing.sol",
  "compiler": {
    "name": "solc",
    "version": "0.8.20+commit.a1b79de6.Emscripten.clang"
  },
  "schemaVersion": "3.4.14",
  "updatedAt": "2023-05-22T18:18:02.494Z",
  "networkType": "ethereum",
  "devdoc": {
    "events": {
      "Approval(address,address,uint256)": {
        "details": "Emitted when `owner` enables `approved` to manage the `tokenId` token."
      },
      "ApprovalForAll(address,address,bool)": {
        "details": "Emitted when `owner` enables or disables (`approved`) `operator` to manage all of its assets."
      },
      "Transfer(address,address,uint256)": {
        "details": "Emitted when `tokenId` token is transferred from `from` to `to`."
      }
    },
    "kind": "dev",
    "methods": {
      "approve(address,uint256)": {
        "details": "See {IERC721-approve}."
      },
      "balanceOf(address)": {
        "details": "See {IERC721-balanceOf}."
      },
      "getApproved(uint256)": {
        "details": "See {IERC721-getApproved}."
      },
      "isApprovedForAll(address,address)": {
        "details": "See {IERC721-isApprovedForAll}."
      },
      "name()": {
        "details": "See {IERC721Metadata-name}."
      },
      "owner()": {
        "details": "Returns the address of the current owner."
      },
      "ownerOf(uint256)": {
        "details": "See {IERC721-ownerOf}."
      },
      "renounceOwnership()": {
        "details": "Leaves the contract without owner. It will not be possible to call `onlyOwner` functions anymore. Can only be called by the current owner. NOTE: Renouncing ownership will leave the contract without an owner, thereby removing any functionality that is only available to the owner."
      },
      "safeTransferFrom(address,address,uint256)": {
        "details": "See {IERC721-safeTransferFrom}."
      },
      "safeTransferFrom(address,address,uint256,bytes)": {
        "details": "See {IERC721-safeTransferFrom}."
      },
      "setApprovalForAll(address,bool)": {
        "details": "See {IERC721-setApprovalForAll}."
      },
      "symbol()": {
        "details": "See {IERC721Metadata-symbol}."
      },
      "tokenByIndex(uint256)": {
        "details": "See {IERC721Enumerable-tokenByIndex}."
      },
      "tokenOfOwnerByIndex(address,uint256)": {
        "details": "See {IERC721Enumerable-tokenOfOwnerByIndex}."
      },
      "totalSupply()": {
        "details": "See {IERC721Enumerable-totalSupply}."
      },
      "transferFrom(address,address,uint256)": {
        "details": "See {IERC721-transferFrom}."
      },
      "transferOwnership(address)": {
        "details": "Transfers ownership of the contract to a new account (`newOwner`). Can only be called by the current owner."
      }
    },
    "version": 1
  },
  "userdoc": {
    "kind": "user",
    "methods": {},
    "version": 1
  }
}